:0300000002329E2B
:0C329E00787FE4F6D8FD7581C70232E5A8
:102AC100F505D39727B6F615F7B777E6F0C7F27293
:102AD1000002011A0123012C0135013E0147015178
:102AE100015A0164016E01770181018B0194019EFC
:102AF10001A801B201BC01C601CF01D901E301ED79
:102B010001F60200020A0213021D0226022F0238F8
:102B11000242024B0254025C0265026E0276027F9F
:102B21000287028F0297029F02A702AF02B602BE7E
:102B310002C502CC02D302DA02E102E702EE02F49C
:102B410002FB03010307030D03120318031D0323F3
:102B51000328032D03320337033C03410345034A92
:102B6100034E03520356035A035E03620366036A6C
:102B7100036D037103740378037B037E0381038474
:102B81000387038A038D038F0392039503970399A8
:102B9100039C039E03A003A303A503A703A903ABFF
:102BA10003AD03AF03B103B203B403B603B803B972
:102BB10003BB03BC03BE03BF03C103C203C403C5FC
:042BC10003C603C77D
:1035A40042025B000042029E000A420259000001EE
:1035B4008600042E00000000016800016B000191E8
:0635C40000019400C18229
:101DA300900250747FF0A374F9F0E4FF900250E4C2
:101DB30075F001120F5885F082F583E493FE7442A7
:101DC3002FF582E43402F583EEF00FEFB407DD90D4
:101DD3000242E0240FFFE433FE7C007D05120EF186
:101DE300EF7802CEC313CE13D8F9C4333333548000
:101DF300900242F0A3E0240FFFE433FE7C007D0554
:101E0300120EF1EF7802CEC313CE13D8F9C43333D5
:101E1300335480900243F0A3E0240FFFE433FE7CAD
:101E2300007D05120EF1EF7802CEC313CE13D8F95D
:101E3300C43333335480900244F0A3E0240FFFE40F
:101E430033FE7C007D05120EF1EF7802CEC313CE74
:101E530013D8F9C43333335480900245F0A3E024FC
:101E63000FFFE433FE7C007D05120EF1EF7802CE06
:101E7300C313CE13D8F9C43333335480900246F0DE
:101E8300A3E0240FFFE433FE7C007D05120EF1EF87
:101E93007802CEC313CE13D8F9C4333333548090AE
:101EA3000247F0A3E0240FFFE433FE7C007D05121C
:101EB3000EF1EF7802CEC313CE13D8F9C433333304
:101EC3005480900248F09002507450F0A3E4F0FF65
:101ED300900250E475F001120F5885F082F583E407
:101EE30093FE74492FF582E43402F583EEF00FEF8D
:101EF300B407DDE4FF74492FF582E43402F583E08F
:101F0300FE74422FF582E43402F583E06E60037FB2
:091F130001220FEFB407DE7F008C
:011F1C0022A2
:05258500EEF608EFF680
:04258A00AD07AC06E7
:10258E009002A0742AF0A374D3F0E4FA7F78FEEFE1
:10259E00C313FBEAC3132B9002A4F09002A0E0F841
:1025AE00A3E0F5828883C083C0829002A4E0D0822B
:1025BE00D08375F002120FDCE493F8740193F58268
:1025CE008883C39DE5839C9002A4E04003FF8001B5
:1025DE00FA0EEEB405B99002A0E0F8A3E0F58288F9
:1025EE008375F002EA120FDCE493F8740193F5821E
:1025FE008883B50507E583B5040280509002A0E0FC
:10260E00F8A3E0F582888375F002EF120FDCE493F5
:10261E00F8740193F5828883B50507E583B5040246
:10262E008054EAD39F50570A9002A0E0F8A3E0F539
:10263E0082888375F002EA120FDCE493F87401933A
:10264E00F5828883B50509E583B50404EAFF802683
:10265E009002A0E0F8A3E0F582888375F002EA12FA
:10266E000FDCE493F8740193F5828883D39DE583A0
:10267E009C40AF1AAF029002A2E4F0A3EFF09002DA
:06268E00A2E0FEA3E0FF44
:012694002223
:0438FB007FC87E0004
:1038FF00EF4E60150000007D0B7CBEDCFEDDFC751D
:09390F00C134EF1F70EA1E80E7CD
:01391800228C
:10393400759850438E01438E0475D7E075D6FE43C7
:093944008E10C298C299D2AC2287
:103A8C00438E805389F0758ACD758CD4C28DD28CBF
:033A9C00D2A9228A
:103A9F0053D1FDE4F5D575D44C43D10843AF202263
:0D3ACD00E4F5C7F5C5F5C675C380F5C42244
:04391900AF03AE0248
:10391D0075C78375C5018FC4EEF5C375C65A75C6D7
:07392D00A500AFC2023ACD74
:0A38B900AF03AE0274AF2CF8E6FD79
:1038C30075C78375C5028FC4EEF5C3AF058FC27587
:0938D300C65A75C6A500023ACDE3
:10000E0075C78375C5038FC4EEF5C375C65A75C61D
:05001E00A500023ACD2F
:1039D800E4FDFCC2AFFFFE12000E7898E6FD123837
:0339E800C3D2AF98
:0139EB0022B9
:103995007D007C10C2AF7F007E1012000E7896E687
:0639A500FD1238C3D2AF91
:0139AB0022F9
:0C389500D2A6D2A5D2A4D2A2D2A1D29772
:1038A1007D007C12C2AF7F007E1212000E90029D3D
:0738B100E0FD1238C3D2AFA5
:0138B80022ED
:10394D007D007C14C2AF7F007E1412000E900258D1
:07395D00E0FD1238C3D2AFF8
:013964002240
:1038DC007F007E10C2AF12391D7896EFF6D2AFC3BF
:0E38EC00940A4006E6D394FA40047896767863
:0138FA0022AB
:103965007F007E12C2AF12391D90029DEFF0D2AFDB
:07397500D394014002E4F0CD
:01397C002228
:10397D007F007E14C2AF12391D900258EFF0D2AF06
:07398D00D394014002E4F0B5
:013994002210
:102EED0078AFE67852F6FF78B0E6782AF678B1E654
:102EFD00789EF678B2E67827F678B3E6900252F02F
:102F0D0008E6A3F008E6A3F008E6A3F008E6A3F0B0
:102F1D0008E6A3F0EF60087852E6D39407400478F2
:102F2D00527601782AE6D394014002E4F6789EE6C3
:102F3D00D394064002E4F67827E6D39464400276F3
:102F4D0032900252E0D394C840037428F09002539B
:102F5D00E0D394C840037428F0900254E0D394C891
:102F6D0040037428F0900255E0D394C840037428B0
:102F7D00F0900256E0D394C840037428F0900257A5
:0A2F8D00E0D394C840037428F0223A
:102BC5007852E678AFF6782AE678B0F6789EE67819
:102BD500B1F67827E678B2F6900252E008F6A3E05F
:102BE50008F6A3E008F6A3E008F6A3E008F6A3E0DC
:102BF50008F67898E6F96401701D7A02FBC2AFFF0A
:102C05007E0212000EE4FC1238B90BBB00010A0C5F
:102C1500ECB40AF3D2AF22E96402701D7A04FBC258
:102C2500AFFF7E0412000EE4FC1238B90BBB0001A5
:102C35000A0CECB40AF3D2AF22E96403701D7A06DC
:102C4500FBC2AFFF7E0612000EE4FC1238B90BBBC7
:102C550000010A0CECB40AF3D2AF22E96404701D3A
:102C65007A08FBC2AFFF7E0812000EE4FC1238B9E9
:102C75000BBB00010A0CECB40AF3D2AF22E96405E0
:102C8500701C7A0AFBC2AFFF7E0A12000EE4FC122A
:0E2C950038B90BBB00010A0CECB40AF3D2AF45
:012CA300220E
:0E3AAF00C2AFE4FFFE12391D7898A607D2AF11
:013ABD0022E6
:102D7B007898E6FF6005D394034004789876017841
:102D8B0098E6FC6401701EC2AF7A02FBFD12391982
:102D9B0074AF2DF8A6070BBB00010A0DEDB40AEDBD
:102DAB00D2AF022E3BEC6402701DC2AF7A04FBFD66
:102DBB0012391974AF2DF8A6070BBB00010A0DEDE4
:102DCB00B40AEDD2AF80697898E6FC6403701DC23B
:102DDB00AF7A06FBFD12391974AF2DF8A6070BBBA2
:102DEB0000010A0DEDB40AEDD2AF8044EC6404701F
:102DFB001DC2AF7A08FBFD12391974AF2DF8A60767
:102E0B000BBB00010A0DEDB40AEDD2AF802278980E
:102E1B00E66405701BC2AF7A0AFBFD12391974AF59
:102E2B002DF8A6070BBB00010A0DEDB40AEDD2AFCE
:032E3B00022EED77
:0C3ADA00759D3FE4F5BDF5BE75BCA02253
:10386800E4FDFCEF44A8F5BC00000000E5BC30E432
:10387800FB53BCEFAFBD7C00AD077E00ED7802C303
:0C38880033CE33CED8F9FDAFBEEF4DFFBC
:013894002211
:022F9700AB0786
:102F9900E4FAAF03123868EA25E02478F8A60608AF
:102FA900A6077F027E001238FF0AEAB407E4E4FFAD
:102FB900AE07EED39406503CEE25E02479F9EF25CF
:102FC900E02478F8E6FC08E6FDC397EC1997402160
:102FD900EE25E02478F8E6FA08E6FBEF25E0247808
:102FE900F8A60208A603EE25E02478F8A60408A6A8
:102FF900050E80BE0FEFB407B7E47884F608F678BB
:1030090078F608F6797BE7787D26FF19E71836FE0A
:10301900EF787F26FFEE1836FEEF788126FFEE184F
:1030290036FEEF788326FFEE1836FE7C007D05021A
:023039000F0383
:103570009002C0EBF0A3EAF0A3E9F0ED1DAE0470F9
:10358000011C4E601EC2999002C0E0FBA3E475F0DE
:1035900001120F58A9F0FA120E89F5993099FDC25F
:0435A0009980D82214
:093AE600007F017E86DEFEDFFC9C
:013AEF0022B4
:1034F200D2B6D2C1D2B7E4FF123516D2B67F441289
:103502003516D2B67FCE1235167838E6FF1235164A
:04351200D2B67F931B
:02351600AD07FF
:10351800123AE6C2B6E4FFC2C1ED1392B7D2C1EDCA
:0B352800C313FD0FEFB408EF023AE6FA
:0E303B00E490029DF0C2C21238A17D117F0107
:02304900AA07D4
:10304B00EA6401702B79CB7BCA7835E654F0FFF636
:10305B00ED902AC19354F0FEC4540F4F9002A5F08B
:10306B00F618E654F0FFF6ED902AC193540F802A20
:10307B00EAB4021279C77BC7789DE65408FFF6EDD8
:10308B00902AC1938014EAB4031379C67BC6789C4B
:10309B00E65408FFF6ED902AC1934FFCF6D2B6D258
:1030AB00C1D2B7E4FF123516D2B67F44123516D211
:1030BB00B6EAB4010FAF011235169002A5E0FF126C
:1030CB003516D2B600AF03123516AF0412350FD238
:0130DB00B63E
:0130DC0022D1
:0433B500789EE6FF19
:1033B900EF7009783BE65430F6F68058EFB4010B0C
:1033C900783BE65430F64440F68049EFB4020B7876
:1033D9003BE65430F644C0F6803AEFB4030B783B31
:1033E900E65430F644C8F6802BEFB4040B783BE67C
:1033F9005430F644CCF6801CEFB4050B783BE65408
:1034090030F644CEF6800DEFB40609783BE6543029
:10341900F644CFF6D2B6D2C1D2B7E4FF123516D2EE
:10342900B67F44123516D2B67FCF123516783B12C5
:05343900350DD2B622A2
:10332A00789BA60708A60708A6077834A60708A662
:10333A00077838A607783BA607D2B6D2C1D2B7E437
:10334A00FF123516D2B67F44123516D2B67FC31293
:10335A003516789BE6FF123516D2B67FC612351699
:10336A0008E6FF123516D2B67FC712351608E6FFF1
:10337A00123516D2B67FCA1235167834E6FF1235E0
:10338A0016D2B67FCB12351608E6FF123516D2B61C
:10339A007FCE1235167838E6FF123516D2B67FCFB1
:0B33AA00123516783B12350DD2B6220A
:0F2E3E00D231900252E0FFE49002A0F0A3EFF037
:102E4D00203103022ED79002A0E0FAA3E0FB7C0311
:102E5D007DE8FFAE02120F037E007F64CFCDCFCE93
:102E6D00CCCE120F03A3EFF07C007D64AF03AE0256
:102E7D00120F037E007F0ACFCDCFCECCCE120F0323
:102E8D00A3EFF09002A0E0FEA3E0FF7C007D0A120C
:102E9D000F039002A4EDF09002A2E070047D10806B
:102EAD00059002A2E0FD7F011230499002A2E07070
:102EBD0008A3E070047D1080059002A3E0FD7F0261
:102ECD001230499002A4E0FD80107D107F01123078
:0F2EDD00497D107F021230497D107F031230496A
:012EEC0022C3
:1035D600789BE63031054440F6800354BFF6D2B6F8
:1035E600D2C1D2B7E4FF123516D2B67F44123516D1
:0F35F600D2B67FC3123516789B12350DD2B6228E
:1039EC007838E63031054408F6800354F7F6123483
:0439FC00F2D2B6222B
:103A00007838E63029054404F6800354FBF6123476
:043A1000F2D2B62216
:103A14007838E6302A054402F6800354FDF6123461
:043A2400F2D2B62202
:103A28007838E6302B054401F6800354FEF612344C
:043A3800F2D2B622EE
:103605007835E63031054440F6800354BFF6D2B62E
:10361500D2C1D2B7E4FF123516D2B67F44123516A1
:0F362500D2B67FCB123516783512350DD2B622BC
:103634007835E63031054420F6800354DFF6D2B6FF
:10364400D2C1D2B7E4FF123516D2B67F4412351672
:0F365400D2B67FCB123516783512350DD2B6228D
:103663007835E63031054410F6800354EFF6D2B6D0
:10367300D2C1D2B7E4FF123516D2B67F4412351643
:0F368300D2B67FCB123516783512350DD2B6225E
:10369200789BE6302C054410F6800354EFF6D2B640
:1036A200D2C1D2B7E4FF123516D2B67F4412351614
:0F36B200D2B67FC3123516789B12350DD2B622D1
:1036C100789BE6302D054420F6800354DFF6D2B610
:1036D100D2C1D2B7E4FF123516D2B67F44123516E5
:0F36E100D2B67FC3123516789B12350DD2B622A2
:1036F000789BE63031054480F68003547FF6D2B6DD
:10370000D2C1D2B7E4FF123516D2B67F44123516B5
:0F371000D2B67FC3123516789B12350DD2B62272
:10371F00789CE6302E054408F6800354F7F6D2B6AF
:10372F00D2C1D2B7E4FF123516D2B67F4412351686
:0F373F00D2B67FC6123516789C12350DD2B6223F
:10374E00789BE63031054404F6800354FBF6D2B67E
:10375E00D2C1D2B7E4FF123516D2B67F4412351657
:0F376E00D2B67FC3123516789B12350DD2B62214
:10377D00789BE63031054408F6800354F7F6D2B64F
:10378D00D2C1D2B7E4FF123516D2B67F4412351628
:0F379D00D2B67FC3123516789B12350DD2B622E5
:103A3C007838E63031054480F68003547FF6123432
:043A4C00F2D2B622DA
:103A50007838E63031054440F6800354BFF612341E
:043A6000F2D2B622C6
:103A64007838E63031054420F6800354DFF612340A
:043A7400F2D2B622B2
:1037AC007834E6302F054408F6800354F7F6D2B689
:1037BC00D2C1D2B7E4FF123516D2B67F44123516F9
:0F37CC00D2B67FCA123516783412350DD2B62216
:1037DB00789DE63030054408F6800354F7F6D2B6F0
:1037EB00D2C1D2B7E4FF123516D2B67F44123516CA
:0F37FB00D2B67FC7123516789D12350DD2B62281
:103A78007838E63031054410F6800354EFF61234F6
:043A8800F2D2B6229E
:10380A00783BE63031054410F6800354EFF6D2B621
:10381A00D2C1D2B7E4FF123516D2B67F441235169A
:0F382A00D2B67FCF123516783B12350DD2B622AB
:10383900783BE63031054420F6800354DFF6D2B6F2
:10384900D2C1D2B7E4FF123516D2B67F441235166B
:0F385900D2B67FCF123516783B12350DD2B6227C
:102CA400EF14B407004003022D7A902CBC75F00396
:102CB400A4C58325F0C58373022CD1022CE9022D0F
:102CC40001022D14022D27022D3F022D5CD2291260
:102CD4003A00C22A123A14C22B123A28D2311236BE
:102CE40005C231806CD229123A00D22A123A14C297
:102CF4002B123A28D231123605D2318054D22912FD
:102D04003A00D22A123A14D22B123A28D231802411
:102D1400D229123A00C22A123A14D22B123A28D2D9
:102D2400318046C229123A00D22A123A14D22B1206
:102D34003A28C231123605D2318033C229123A0000
:102D4400D22A123A14C22B123A28C231123605D2B0
:102D540031123634C231801BC229123A00C22A12FF
:102D64003A14D22B123A28C231123605C231123625
:072D740034D2311236632254
:10353300122D7BE4FF12332AD2317898E6122E44FF
:10354300D2311236F07FE87E031238FFC2311236D1
:10355300F0D2311235D6D23112377D1233B5D23192
:0D356300123A78D23112380AD231023839CA
:0F3ABE0043BA8090FF32EEF0A3EFF053BA7F22AD
:0A3AF00043BA8075F58853BA7F22AF
:1039AC007F0A7E00123ABE43BA80E4F5F553BA7F23
:0739BC00782CF608760A22C0
:073176001239D8789EE6FF34
:10317D00EFB40700400302320D90318DF82828730B
:10318D000231A20231A80231B80231C80231D8028F
:10319D0031E80231F81239ACC21222123AF0782C11
:1031AD00760F0876A07FA07E0F804E123AF0782C15
:1031BD0076110876947F947E11803E123AF0782C29
:1031CD0076130876887F887E13802E123AF0782C3D
:1031DD00761508767C7F7C7E15801E123AF0782C51
:1031ED0076170876707F707E17800E123AF0782C65
:1031FD0076190876647F647E19123ABED212D20710
:01320D00229E
:0300230002343E66
:10343E00C0E0C0F0C083C082C0D075D000C000C054
:10344E0006C007309844C2987886E6703DC3900255
:10345E005CE0944090025BE0648094804004E4F071
:10346E00A3F090025BE475F001120F58FE745D2517
:10347E00F0F58274023EF583E599F090029EE0FF2E
:10348E00A3E0900259CFF0A3EFF0D007D006D00002
:0B349E00D0D0D082D083D0F0D0E0323C
:10269500C3EF9DFFEE9C9002A0F0A3EFF09002A087
:1026A500E0FEA3E07803C333CE33CED8F9FDAC0604
:1026B500EC120DCF9002A2120FB7783E120F9EC0FA
:1026C50000C001C002C0039002A0E0FCA3E0FDEC45
:1026D500120DCFE4FBFAF9783F120C4BD003D00270
:1026E500D001D000120B5A783E120FABE4FFFE7DED
:1026F500617C44783E120F9E120D51600D400B789F
:102705003E120FC3446100008018E4FFFEFDFC7813
:102715003E120F9E120D515009783E120FC3000054
:10272500000078B9E6FE08E6FFC39002A1E09FFF2E
:102735009002A0E09EFEEF25E0FDEE33FC120DCFEA
:102745009002A6120FB79002A0E0FEA3E0FF78B9B1
:10275500A60608A607783E120F929002A2E0F8A3FB
:10276500E0F9A3E0FAA3E0FB120B5A9002A6E0F809
:10277500A3E0F9A3E0FAA3E0FB120B5A120E08D36B
:10278500EF9484EE6480948340057E037F8422C3A6
:0A279500EE648094805003E4FEFF20
:01279F002217
:1027A000C3EF9DFFEE9C9002A0F0A3EFF09002A07B
:1027B000E0FEA3E07803C333CE33CED8F9FDAC06F8
:1027C000EC120DCF9002A2120FB77844120F9EC0E8
:1027D00000C001C002C0039002A0E0FCA3E0FDEC39
:1027E000120DCFE4FBFAF9783F120C4BD003D00264
:1027F000D001D000120B5A7844120FABE4FFFE7DDB
:10280000617C447844120F9E120D51600D400B788C
:1028100044120FC3446100008018E4FFFEFDFC7801
:1028200044120F9E120D5150097844120FC300003C
:10283000000078BBE6FE08E6FFC39002A1E09FFF20
:102840009002A0E09EFEEF25E0FDEE33FC120DCFDE
:102850009002A6120FB79002A0E0FEA3E0FF78BBA3
:10286000A60608A6077844120F929002A2E0F8A3E9
:10287000E0F9A3E0FAA3E0FB120B5A9002A6E0F8FD
:10288000A3E0F9A3E0FAA3E0FB120B5A120E08D35F
:10289000EF9484EE6480948340057E037F8422C39A
:0A28A000EE648094805003E4FEFF14
:0128AA00220B
:1028AB00C3EF9DFFEE9C9002A0F0A3EFF09002A06F
:1028BB00E0FEA3E07803C333CE33CED8F9FDAC06EC
:1028CB00EC120DCF9002A2120FB7784A120F9EC0D6
:1028DB0000C001C002C0039002A0E0FCA3E0FDEC2D
:1028EB00120DCFE4FBFAF9783F120C4BD003D00258
:1028FB00D001D000120B5A784A120FABE4FFFE7DC9
:10290B00617C44784A120F9E120D51600D400B787A
:10291B004A120FC3446100008018E4FFFEFDFC78EF
:10292B004A120F9E120D515009784A120FC3000024
:10293B00000078BDE6FE08E6FFC39002A1E09FFF12
:10294B009002A0E09EFEEF25E0FDEE33FC120DCFD2
:10295B009002A6120FB79002A0E0FEA3E0FF78BD95
:10296B00A60608A607784A120F929002A2E0F8A3D7
:10297B00E0F9A3E0FAA3E0FB120B5A9002A6E0F8F1
:10298B00A3E0F9A3E0FAA3E0FB120B5A120E08D353
:10299B00EF9484EE6480948340057E037F8422C38E
:0A29AB00EE648094805003E4FEFF08
:0129B50022FF
:1029B600C3EF9DFFEE9C9002A0F0A3EFF09002A063
:1029C600E0FEA3E07803C333CE33CED8F9FDAC06E0
:1029D600EC120DCF9002A2120FB77853120F9EC0C1
:1029E60000C001C002C0039002A0E0FCA3E0FDEC21
:1029F600120DCFE4FBFAF9783F120C4BD003D0024C
:102A0600D001D000120B5A7853120FABE4FFFE7DB3
:102A1600617C447853120F9E120D51600D400B7865
:102A260053120FC3446100008018E4FFFEFDFC78DA
:102A360053120F9E120D5150097853120FC3000006
:102A4600000078BFE6FE08E6FFC39002A1E09FFF04
:102A56009002A0E09EFEEF25E0FDEE33FC120DCFC6
:102A66009002A6120FB79002A0E0FEA3E0FF78BF87
:102A7600A60608A6077853120F929002A2E0F8A3C2
:102A8600E0F9A3E0FAA3E0FB120B5A9002A6E0F8E5
:102A9600A3E0F9A3E0FAA3E0FB120B5A120E08D347
:102AA600EF9484EE6480948340057E037F8422C382
:0A2AB600EE648094805003E4FEFFFC
:012AC00022F3
:03000B00021C1DB7
:101C1D00C0E0C0F0C083C082C0D075D008789906EE
:101C2D00E6D39404402A7600D390025CE0940090B1
:101C3D00025BE06480948040177886E67012900213
:101C4D005974FFF5F0120F5845F07004788676013F
:101C5D00301E60786D06E618700106786CE6FE0899
:101C6D00E6FF64014E7019C379A0E778519618E626
:101C7D006480F819E76480985004C2A4C297C20921
:101C8D00200918C3EF78889618E66480F8EE648012
:101C9D00984008D2A4D297D2098018300915C3787C
:101CAD006DE694E818E6648094834007C2097600D7
:101CBD00087600301F60786F06E618700106786EA2
:101CCD00E6FE08E6FF64014E7019C379A3E7785864
:101CDD009618E66480F819E76480985004C2A5C28E
:101CED00A1C20A200A18C3EF788A9618E66480F814
:101CFD00EE6480984008D2A5D2A1D20A8018300A8D
:101D0D0015C3786FE694E818E6648094834007C2A3
:101D1D000A7600087600302060787106E6187001AA
:101D2D00067870E6FE08E6FF64014E7019C379A6C9
:101D3D00E7785E9618E66480F819E7648098500499
:101D4D00C2A6C2A2C20B200B18C3EF788C9618E660
:101D5D006480F8EE6480984008D2A6D2A2D20B809F
:101D6D0018300B15C37871E694E818E664809483F7
:101D7D004007C20B760008760020020F78C106E6F8
:101D8D00D3946440067600D202D2CCD0D0D082D08B
:061D9D0083D0F0D0E0321B
:03009B000230DD53
:1030DD00C0E0C0D075D010E580540F78A1F6300F48
:1030ED002078C406E6D394B074809484401376009F
:1030FD0078C70679C7E7789696400678C77600D2E6
:10310D0017782806E6D3940A40047600D2273012A9
:10311D000F789A06E6D3940240067600D205B206E1
:10312D002010117895E6D394094006B2C27600803E
:10313D0003789506300420789706E6D39450400422
:10314D007600D2117832E6D3940940067600B203A8
:10315D008012783206800D783306E6D39428400429
:09316D007600D216D0D0D0E03279
:10009E00C286C285D2A0D210759460E4F593F59213
:1000AE00F591759608F595F5B2F5B1F5B4F5B3F58C
:1000BE00CAF5C943BA8075F10890FFF2F090FFF0CF
:1000CE00742EF0A374E0F090FF30E4F0A3F0A3F0F0
:1000DE00A3740AF0A3E4F075F73053BA7F123934E3
:1000EE00123ADA123A8C123A9FD2AF123AAF122D5E
:1000FE007B1238DC12396512397DE4FF12332AD2B5
:10010E008778A1E6640360030201A4C202C2CCC2D6
:10011E00A0C2C3C2C4C2A6D2317896E6122E4478CB
:10012E00A1E6B4030575C13480F57F327E00123826
:10013E00FF78A1E664017011C202C2CC789606E681
:10014E00D394FA401A76FA801678A1E66405701CEC
:10015E00C202C2CC789616E6C3940A5002760AD230
:10016E00317896E6122E441238FB80BE78A1E664F2
:10017E000370B7C202C2CC12399578A1E6B403055A
:10018E0075C13480F5D2C3D2A6D2C4D2A4D2A5E40E
:10019E00FF12332AD2A0C2C2C202C2CCD2C27FFF89
:1001AE0012332AC2A0D210C2A41238FBC2A5123832
:1001BE00FBC2A61238FBC2C41238FBC2C31238FBF4
:1001CE00C2C27FE87E031238FFE4FF12332AD2C385
:1001DE00D2A6D2C4D2A4D2C2D2A5C223123533C261
:1001EE0011C216C201E47833F6C213D2857FC8FE5F
:1001FE001238FFC285D231123A78C23112380A90C3
:10020E000252E0FF7850760008A607A3E0FF785769
:10021E00760008A607A3E0FF785D760008A607A380
:10022E00E0FF7863760008A607A3E0FF7866760005
:10023E0008A607A3E0FF7869760008A607E478B958
:10024E00F608F608F608F608F608F608F608F67840
:10025E00C2F608F678C5F608F6783E120FC300000F
:10026E0000007844120FC300000000784A120FC33A
:10027E00000000007853120FC300000000785912DE
:10028E000FC300000000785F120FC300000000785B
:10029E00A47601D227D216900258E0700512317959
:1002AE00D20790029DE07004C2C28002D2C2E478EE
:1002BE0099F690025BF0A3F090029EE0FFA3E0900F
:1002CE000259CFF0A3EFF0E47886F675C134788644
:1002DE00E6601B7B017A02795D90025BE0FCA3E095
:1002EE00FD121A57E490025BF0A3F07886F6208791
:1002FE000B202308D22378297601800C3087093011
:10030E002306C223E47829F6300518C20530060903
:10031E00D231123A78C2318007C231123A78D231D4
:10032E0012380A2027030205D2C227E4FF122F97A4
:10033E0078361225857836A60608A60718E6FE0832
:10034E00E6FDAC06789FA60408A605C3EE94004011
:10035E0004D2188006C218D297D2A47F01122F970A
:10036E0078391225857839A60608A60718E6FE08FC
:10037E00E6FDAC0678A2A60408A605C3EE940040DE
:10038E0004D2198006C219D2A1D2A57F02122F97CC
:10039E00783C122585783CA60608A60718E6FE08C6
:1003AE00E6FDAC0678A5A60408A605C3EE940040AB
:1003BE0004D21B8006C21BD2A2D2A67F03122F9795
:1003CE0078421225857842A60608A60718E6FE088A
:1003DE00E6FDAC0678A7A60408A605C3EE94004079
:1003EE0004D21D8006C21DD296D2C290029DE0603C
:1003FE00030205D23018717851E624FEFF18E63458
:10040E00FFFE789FE6FC08E6FDD39FEE6480F8ECD5
:10041E006480985006C2A4C2978045D3ED9FEE64C7
:10042E0080F8EC64809840217850E6FE08E6FFEDF7
:10043E009FEE6480F8EC648098500ED21E122695C2
:10044E007887A60608A607801FD379A0E77851966D
:10045E0018E66480F819E7648098400CD2A4D2970D
:10046E00C21EE4786CF608F63019717858E624FE50
:10047E00FF18E634FFFE78A2E6FC08E6FDD39FEEF9
:10048E006480F8EC6480985006C2A5C2A18045D362
:10049E00ED9FEE6480F8EC64809840217857E6FE7C
:1004AE0008E6FFED9FEE6480F8EC648098500ED263
:1004BE001F1227A07889A60608A607801FD379A346
:1004CE00E778589618E66480F819E7648098400C2F
:1004DE00D2A5D2A1C21FE4786EF608F6301B717851
:1004EE005EE624FEFF18E634FFFE78A5E6FC08E67D
:1004FE00FDD39FEE6480F8EC6480985006C2A6C2CD
:10050E00A28045D3ED9FEE6480F8EC648098402184
:10051E00785DE6FE08E6FFED9FEE6480F8EC648001
:10052E0098500ED2201228AB788BA60608A607800C
:10053E001FD379A6E7785E9618E66480F819E7640B
:10054E008098400CD2A6D2A2C220E47870F608F6AB
:10055E00301D717864E624FEFF18E634FFFE78A79E
:10056E00E6FC08E6FDD39FEE6480F8EC64809850BC
:10057E0006C2C2C2968045D3ED9FEE6480F8EC644D
:10058E00809840217863E6FE08E6FFED9FEE6480DA
:10059E00F8EC648098500ED2211229B6788DA606FA
:1005AE0008A607801FD379A8E778649618E66480BA
:1005BE00F819E7648098400CD2C2D296C221E47832
:1005CE0072F608F620160302068AC21678A4E624EE
:1005DE00FE60321460541460762403600302067DBC
:1005EE00D2317836E6FF08E6CF122E46C2311236E9
:1005FE0005D231123A3CC231123A64C231123A502B
:10060E0020A4678061D2317839E6FF08E69002A017
:10061E00CF122E49C231123A3CC231123A64D23153
:10062E00123A5020A502803E8040D231783CE6FF3F
:10063E0008E69002A0CF122E49C231123A3CD231B6
:10064E00123A64C231123A5020A6028019801BD28F
:10065E00317842E6FF08E69002A0CF122E49D23141
:10066E0012360520C204D2318002C2311239EC7822
:10067E00A406E6D3940440377601803378A4E614BA
:10068E0024FE601014601314601624037021D231FE
:10069E0078368010D2317839800AD231783C800495
:1006AE00D2317842E6FF08E69002A0CF122E4930F2
:1006BE001137C21178A47601122BC5C204D216903E
:1006CE000252E0FF7850760008A607A3E0FF7857A5
:1006DE00760008A607A3E0FF785D760008A607A3BC
:1006EE00E0FF7863760008A607300042C200900251
:1006FE009DE07022D2C204F0E4FD7F011230497DEC
:10070E000F7F021230497D0F7F0312304912389548
:10071E007F587E02801512303B7D117F02123049C8
:10072E007D117F031230497F2C7E011238FF302657
:10073E0040C226C202C2CCC212C213D204E47897BF
:10074E00F6123533123176900252E0FF7850760071
:10075E0008A607A3E0FF7857760008A607A3E0FFD8
:10076E00785D760008A607A3E0FF7863760008A6FA
:10077E000778A1E6706E7865761E78A1E67012781D
:10078E0065E6D39400400A167F0A7E001238FF8079
:10079E00E97865E6704EC202C2CC78A1E6700575A6
:1007AE00C13480F690029DE07022D2C204F0E4FDC6
:1007BE007F011230497D0F7F021230497D0F7F037A
:1007CE001230491238957F587E02801512303B7DCB
:1007DE00117F021230497D117F031230497F2C7E2A
:1007EE00011238FF78A1E6B4030B78A1E6B4030535
:1007FE0075C13480F578A1E6FC64017032C202C284
:10080E00CCD2047897F6789E06E6D394064002760C
:10081E00061233B5782AE6FF6006B4010620870378
:10082E0012317978A1E66401703B75C13480F4EC25
:10083E0064057031C202C2CCD2047897F6789EE677
:10084E007003F68003789E161233B5782AE6FF60A1
:10085E0006B4010620870312317978A1E6B40505A6
:10086E0075C13480F578A1E66404706A7865769671
:10087E0078A1E6B404127865E6D39400400A167F98
:10088E000A7E001238FF80E87865E66049C202C22F
:10089E00CCC212C213D204E47897F60806E6D394BB
:1008AE00034002760112353312317678A1E6B40494
:1008BE000575C13480F5900252E0FF78507600083D
:1008CE00A607A3E0FF7857760008A607A3E0FF78F7
:1008DE005D760008A60778A1E6640260030202D9DD
:1008EE0078A47601C202C2CCC23112377DD2311247
:1008FE00374ED2311235D6D231123A3CC231123A7B
:10090E0050C231123A64C231123605C23112363437
:10091E00C231123663122E3ED204E47897F678A1D5
:10092E00E66402701175C134300304D2318002C204
:10093E0031122E4080E87F1E7E001238FF30110AE1
:10094E00900252E0FF7850020B25300304D2318022
:10095E0002C231122E4078A1E6640170187897F623
:10096E00C202C2CC900252E004F0E0D394C84026FA
:10097E0074C8F0802178A1E6640570277897F6C2D6
:10098E0002C2CC900252E0D394005004E4F08006F0
:10099E00900252E014F0122E3E7F967E001238FF27
:1009AE0002094478A1E66402708C7897F6C202C2FE
:1009BE00CC78A1E6B4020575C13480F5900252E000
:1009CE00FF7850760008A607C231123A3CD2311297
:1009DE003A50D231A3122E437F1E7E001238FF30C2
:1009EE00110A900253E0FF7857020B25300304D210
:1009FE00318002C231900253122E4378A1E6640177
:100A0E0070187897F6C202C2CC900253E004F0E060
:100A1E00D394C8402674C8F0802178A1E66405708E
:100A2E002C7897F6C202C2CC900253E0D3940050B9
:100A3E0004E4F08006900253E014F0D23190025399
:100A4E00122E437F967E001238FF0209E678A1E649
:100A5E00640270847897F6C202C2CC78A1E6B40222
:100A6E000575C13480F5900253E0FF785776000883
:100A7E00A607C231123A50D231123A64D231A312C1
:100A8E002E437F1E7E001238FF30110A900254E072
:100A9E00FF785D020B25300304D2318002C2319003
:100AAE000254122E4378A1E6640170187897F6C2AC
:100ABE0002C2CC900254E004F0E0D394C8402674F5
:100ACE00C8F0802178A1E66405702C7897F6C202F2
:100ADE00C2CC900254E0D394005004E4F08006900F
:100AEE000254E014F0D231900254122E437F967EBF
:100AFE00001238FF020A9078A1E66402708478979B
:100B0E00F6C202C2CC78A1E6B4020575C13480F5F6
:100B1E00900254E0FF785D760008A6070000C2112F
:100B2E0078A47601C204C231123A3CC231123A5054
:100B3E00C231123A64D23112377DC23112374E129F
:050B4E002BC50202D9D5
:0B35CA00011801011900420000000080
:1034A900E0FBA3E0FAA3E0F9120E89FF90000112F4
:0534B9000EA2FD7B03E3
:0234BE00AC0759
:1034C000E4FFFE9002BBECF0ED2480A3F0A3EBF050
:1034D0007B017A0279BB7D037C001200269002BE3C
:1034E000EFF0EEA3F07B017A0279BB7D057C000250
:0234F000357035
:050003007E007F0122D8
:0B1F1D009002A9EBF0A3EAF0A3E9F0AA
:101F2800E4A3F0A3F0A3F0A3F0A3F0A3F0A3F0A31D
:101F3800F0A3F09002A9E0FBA3E0FAA3E0F9900077
:101F480002120EA2900003120EA2900004120EA21A
:101F58009002AFF0A3E4F0900005120EA2FF9002E9
:101F6800B0E02FF09002AFE03400F0E0FEA3E0FF15
:101F7800C39401EE94004009D3EF94D0EE94074047
:101F8800129002A91234A99002ACE4F0A304F0FF65
:101F98007E00229002AFE0FCA3E0FDAE047803CE01
:101FA800C313CE13D8F99002AEF0ED5407D39400C2
:101FB800E494004003E004F0E4900000F0A3F09003
:101FC80002A9E0FBA3E0FAA3E0F9120E899001420E
:101FD800F0900001120EA2900143F09002AEE09042
:101FE8000144F09002AEE0FF14F0EF60239000008F
:101FF800E0FEA3E02445F58274013EF583E5C8F0D0
:10200800900001E004F07006900000E004F080D336
:10201800900000E0FEA3E0900144F02405FFE43EB8
:10202800FE9002B3F0A3EFF07B017A01794224FE1F
:10203800FDEE34FFFC1200269002B1EEF0A3EFF0A3
:102048009002B1E0FEA3E0FBA3E0FCA3E0FD244086
:10205800F58274013CF583EBF0EEFF74412DF582B7
:1020680074013CF583EFF07B017A017942123570F7
:082078009002ACE0FEA3E0FFC2
:01208000223D
:0B2081009002A9EBF0A3EAF0A3E9F045
:10208C00E4A3F0A3F0A3F0A3F0A3F0A3F0A3F0A3B8
:10209C00F0A3F09002A9E0FBA3E0FAA3E0F9900012
:1020AC0002120EA2900003120EA2900004120EA2B5
:1020BC009002AFF0A3E4F0900005120EA2FF900284
:1020CC00B0E02FF09002AFE03400F0E0FEA3E0FFB0
:1020DC00C39401EE94004009D3EF94D0EE940740E2
:1020EC00129002A91234A99002ACE4F0A304F0FF00
:1020FC007E00229002AFE0FCA3E0FDAE047803CE9C
:10210C00C313CE13D8F99002AEF0ED5407D394005C
:10211C00E494004003E004F0E4900000F0A3F0909D
:10212C0002A9E0FBA3E0FAA3E0F9120E89900142A8
:10213C00F0900001120EA2900143F09002AEE090DC
:10214C000144F09002AEE0FF14F0EF602390000029
:10215C00E0FEA3E02445F58274013EF583E5C8F06A
:10216C00900001E004F07006900000E004F080D3D1
:10217C00900000E0FEA3E0900144F02405FFE43E53
:10218C00FE9002B3F0A3EFF07B017A01794224FEBA
:10219C00FDEE34FFFC1200269002B1EEF0A3EFF03E
:1021AC009002B1E0FEA3E0FBA3E0FCA3E0FD244021
:1021BC00F58274013CF583EBF0EEFF74412DF58252
:1021CC0074013CF583EFF07B017A01794212357092
:0821DC009002ACE0FEA3E0FF5D
:0121E40022D8
:0B100E009002A9EBF0A3EAF0A3E9F0C8
:10101900E4A3F0A3F0A3F0A3F0A3F0A3F0A3F0A33B
:10102900F0A3F0A3F0A3F09002A9E0FBA3E0FAA3D8
:10103900E0F9900002120EA29002AFF0A3E4F09042
:101049000003120EA2FF9002B0E02FF09002AFE071
:101059003400F0900004120EA29002B1F0A3E4F063
:10106900900005120EA2FF9002B2E02FF09002B19B
:10107900E03400F0A3E024FCF09002B1E034FFF08A
:10108900E0FEA3E0FFC39401EE94004009D3EF947E
:101099007DEE940040129002A91234A99002ACE4AA
:1010A900F0A304F0FF7E00229002B1E0FCA3E0FD72
:1010B900AE047803CEC313CE13D8F99002AEF0ED87
:1010C9005407D39400E494004003E004F0E4900052
:1010D90000F0A3F09002A9E0FBA3E0FAA3E0F91263
:1010E9000E89900142F0900001120EA2900143F086
:1010F9009002AEE0900144F09002AFE0FEA3E0FF61
:10110900E4FCFD7B417A9CF9F8C3120F7C60030271
:1011190013079002B174FFF5F0120F5845F07003F0
:1011290002129C7898E6FF900000E0FCA3E02445B9
:10113900F58274013CF583EFF0900001E004F07052
:1011490006900000E004F090029DE0FF900000E0AE
:10115900FCA3E02445F58274013CF583EFF090008F
:1011690001E004F07006900000E004F078A0E6FFCA
:10117900900000E0FCA3E02445F58274013CF5836E
:10118900EFF0900001E004F07006900000E004F038
:1011990078A3E6FF900000E0FCA3E02445F5827403
:1011A900013CF583EFF0900001E004F07006900037
:1011B90000E004F078A6E6FF900000E0FCA3E0243C
:1011C90045F58274013CF583EFF0900001E004F0ED
:1011D9007006900000E004F078A8E6FF900000E0B7
:1011E900FCA3E02445F58274013CF583EFF09000FF
:1011F90001E004F07006900000E004F0900252E073
:10120900FF900000E0FCA3E02445F58274013CF561
:1012190083EFF0900001E004F07006900000E00414
:10122900F0900253E0FF900000E0FCA3E02445F5B4
:101239008274013CF583EFF0900001E004F0700640
:10124900900000E004F0900254E0FF900000E0FC00
:10125900A3E02445F58274013CF583EFF090000189
:10126900E004F07006900000E004F0900255E0FF01
:10127900900000E0FCA3E02445F58274013CF5836D
:10128900EFF0900001E004F07006900000E004F037
:1012990002111B900000E0FEA3E0900144F0240538
:1012A900FFE43EFE9002B5F0A3EFF07B017A0179ED
:1012B9004224FEFDEE34FFFC1200269002B3EEF04C
:1012C900A3EFF09002B3E0FEA3E0FBA3E0FCA3E0F0
:1012D900FD2440F58274013CF583EBF0EEFF744187
:1012E9002DF58274013CF583EFF07B017A01794297
:1012F9001235709002ACE4F0A37402F080239002DE
:10130900A9E0FBA3E0FAA3E0F9120E89FF9000011E
:10131900120EA2FD7B021234BE9002ACE4F0A304CB
:09132900F09002ACE0FEA3E0FF2D
:011332002298
:0B1333009002A9EBF0A3EAF0A3E9F0A0
:10133E00E4A3F0A3F0A3F0A3F0A3F0A3F0A3F0A313
:10134E00F0A3F0A3F0A3F09002A9E0FBA3E0FAA3B0
:10135E00E0F9900002120EA29002AFF0A3E4F0901A
:10136E000003120EA2FF9002B0E02FF09002AFE049
:10137E003400F0900004120EA29002B1F0A3E4F03B
:10138E00900005120EA2FF9002B2E02FF09002B173
:10139E00E03400F0A3E024FCF09002B1E034FFF062
:1013AE00E0FEA3E0FFC39401EE94004009D3EF9456
:1013BE007DEE940040129002A91234A99002ACE482
:1013CE00F0A304F0FF7E0022E4900000F0A3F09062
:1013DE0002A9E0FBA3E0FAA3E0F9120E8990014204
:1013EE00F0900001120EA2900143F09002AEE09038
:1013FE000144F09002AFE0FEA3E0FFE4FCFD7B4170
:10140E007A9CF9F8C3120F7C60030216079002B1A2
:10141E0074FFF5F0120F5845F0700302159C789882
:10142E00E6FF900000E0FCA3E02445F58274013C49
:10143E00F583EFF0900001E004F07006900000E0FC
:10144E0004F090029DE0FF900000E0FCA3E0244534
:10145E00F58274013CF583EFF0900001E004F0702A
:10146E0006900000E004F078A0E6FF900000E0FC9B
:10147E00A3E02445F58274013CF583EFF090000162
:10148E00E004F07006900000E004F078A3E6FF9010
:10149E000000E0FCA3E02445F58274013CF583EFE7
:1014AE00F0900001E004F07006900000E004F07887
:1014BE00A6E6FF900000E0FCA3E02445F58274014F
:1014CE003CF583EFF0900001E004F0700690000010
:1014DE00E004F078A8E6FF900000E0FCA3E02445CD
:1014EE00F58274013CF583EFF0900001E004F0709A
:1014FE0006900000E004F0900252E0FF900000E041
:10150E00FCA3E02445F58274013CF583EFF09000D6
:10151E0001E004F07006900000E004F0900253E049
:10152E00FF900000E0FCA3E02445F58274013CF539
:10153E0083EFF0900001E004F07006900000E004EC
:10154E00F0900254E0FF900000E0FCA3E02445F58B
:10155E008274013CF583EFF0900001E004F0700618
:10156E00900000E004F0900255E0FF900000E0FCD7
:10157E00A3E02445F58274013CF583EFF090000161
:10158E00E004F07006900000E004F002141B9000DE
:10159E0000E0FEA3E0900144F02405FFE43EFE903F
:1015AE0002B5F0A3EFF07B017A01794224FEFDEE45
:1015BE0034FFFC1200269002B3EEF0A3EFF090027F
:1015CE00B3E0FEA3E0FBA3E0FCA3E0FD2440F58224
:1015DE0074013CF583EBF0EEFF74412DF58274013E
:1015EE003CF583EFF07B017A01794212357090025F
:1015FE00ACE4F0A37402F080239002A9E0FBA3E018
:10160E00FAA3E0F9120E89FF900001120EA2FD7BE3
:10161E00021234BE9002ACE4F0A304F09002ACE0EF
:04162E00FEA3E0FF38
:011632002295
:10320E009002A9EBF0A3EAF0A3E9F0A3ECF0A3ED92
:01321E00F0BF
:10321F00E4A3F0A3F0A3F0A3F09002A9E0FBA3E0D6
:10322F00FAA3E0F9900002120EA29002B0F0A3E40C
:10323F00F0900003120EA2FF9002B1E02FF0900267
:10324F00B0E03400F0900004120EA27F00FE900058
:10325F0005120EA22FFFE43EFE4F6016EF7002EE36
:10326F00F4600F1234B19002AEE4F0A304F0FF7ECD
:10327F0000229002A9E0FBA3E0FAA3E0F9A3E0FC8F
:0E328F00A3E0FD1235709002AEE0FEA3E0FF5A
:01329D00220E
:102346009002A9EBF0A3EAF0A3E9F0A3ECF0A3ED69
:01235600F096
:10235700E4A3F0A3F0A3F0A3F09002A9E0FBA3E0AD
:10236700FAA3E0F9900002120EA29002B0F0A3E4E3
:10237700F0900003120EA2FF9002B1E02FF090023E
:10238700B0E03400F0900004120EA27F00FE90002F
:1023970005120EA22FFFE43EFEC394004009D3EFBF
:1023A70094FFEE94FF40129002A91234A99002AE56
:1023B700E4F0A304F0FF7E00229002B0E0FEA3E069
:1023C700FFE4FCFD7B157AA4F9F8C3120F7C702497
:1023D7009002A9E0FBA3E0FAA3E0F9900005120E32
:1023E700A2FFD394004071EF9405506C7898A6072C
:1023F700D226802E9002B0E0FEA3E0FFE4FCFD7B36
:10240700197AA4F9F8C3120F7C9002A9702AE0FB8D
:10241700A3E0FAA3E0F9900005120EA290029DF046
:10242700D2009002ACE0FCA3E0FD1235709002AE42
:10243700E4F0A37402F08020E0FBA3E0FAA3E0F944
:10244700120E89FF900001120EA2FD7B021234BE0C
:102457009002AEE4F0A304F09002AEE0FEA3E0FF2A
:012467002252
:0B2468009002A9EBF0A3EAF0A3E9F05A
:10247300E4A3F0A3F0A3F0A3F0A3F0A3F0A3F0A3CD
:10248300F09002A9E0FBA3E0FAA3E0F990000212A6
:102493000EA29002B0F0A3E4F0900003120EA2FF8C
:1024A3009002B1E02FF09002B0E03400F09000040D
:1024B300120EA27F00FE900005120EA22FFFE43E33
:1024C300FEC3EF9401EE94004009D3EF94B0EE9471
:1024D3000740129002A91234A99002ACE4F0A304BD
:1024E300F0FF7E00229002A9E0FBA3E0FAA3E0F94B
:1024F300900006120EA29002B2F0E4A3F09002B292
:10250300E0FFA3E0C39F502FE0FF2407FDE433FC6B
:102513009002A9E0FBA3E0FAA3E0F98D828C831279
:102523000EA2FE74422FF582E43400F583EEF090A0
:1025330002B3E004F080C69002A9E0FBA3E0FAA393
:10254300E0F97D067C001200269002AEEEF0A3EFC8
:10255300F09002AEE0FEA3E0FD9002A9E0FBA3E051
:10256300FAA3E0F9900006ED120ECFEE90000712E9
:102573000ECF7D087C001235709002ACE0FEA3E024
:01258300FF58
:012584002234
:0B21E5009002A9EBF0A3EAF0A3E9F0E0
:1021F000E4A3F0A3F0A3F0A3F0A3F0A3F0A3F0A353
:10220000F09002A9E0FBA3E0FAA3E0F9900002122B
:102210000EA29002B0F0A3E4F0900003120EA2FF11
:102220009002B1E02FF09002B0E03400F090000492
:10223000120EA27F00FE900005120EA22FFFE43EB8
:10224000FEC3EF9401EE94004009D3EF947BEE942B
:102250000040109002A91234A99002ACE4F0A3044B
:102260000223419002B0E0FEA3E0FFE4FCFD7B28E6
:102270007AA0F9F8C3120F7C9002A96022E0FBA3B8
:10228000E0FAA3E0F9120E89FF900001120EA2FD00
:102290007B021234BE9002ACE4F0A304022341E0BE
:1022A000FBA3E0FAA3E0F9900007120EA2900252FD
:1022B000F0900008120EA2900253F0900009120E46
:1022C000A2900254F090000A120EA2900255F07DE6
:1022D000067C001200269002AEEEF0A3EFF0900212
:1022E000AEE0FEA3E0FD9002A9E0FBA3E0FAA3E0CC
:1022F000F9900006ED120ECFEE900007120ECF7D82
:10230000087C00123570900252E0FF785076000889
:10231000A607900253E0FF7857760008A6079002C0
:1023200054E0FF785D760008A607900255E0FF783C
:1023300063760008A607122BC59002ACE4F0A374E4
:0523400002F0FF7E0029
:012345002275
:0B1633009002A9EBF0A3EAF0A3E9F09D
:10163E00A3E4F0A304F0E4A3F0A3F0A3F0A3F0A3BB
:10164E00F0A3F0A3F0A3F0A3F0A3F0A3F0A3F0A3F4
:10165E00F09002A9E0FBA3E0FAA3E0F990000212D9
:10166E000EA29002B0F0A3E4F0900003120EA2FFBF
:10167E009002B1E02FF09002B0E03400F090000440
:10168E00120EA29002B2F0A3E4F0900005120EA288
:10169E00FF9002B3E02FF09002B2E03400F0900021
:1016AE0006120EA2900007120EA2900008120EA2B1
:1016BE009002B5F0A3E4F0900009120EA2FF900282
:1016CE00B6E02FF09002B5E03400F090000A120E52
:1016DE00A29002B4F09002B2E0FEA3E0FFC3940128
:1016EE00EE94004024D3EF947DEE940040028019D6
:1016FE009002B5E0FEA3E0FFC39401EE9400400912
:10170E00D3EF9479EE940040129002A91234A9906E
:10171E0002ACE4F0A304F0FF7E00229002B4E0904D
:10172E0002B7F0E4A3F09002B7E0FFA3E0C39F502E
:10173E002FE0FF240BFDE433FC9002A9E0FBA3E0B5
:10174E00FAA3E0F98D828C83120EA2FE74422FF55D
:10175E0082E43400F583EEF09002B8E004F080C627
:10176E00E4900000F0A3F09002A9E0FBA3E0FAA33E
:10177E00E0F9120E89900142F0900001120EA29033
:10178E000143F09002B2A3E0900144F09002B274D3
:10179E00FFF5F0120F5845F06044900000E0FEA3F4
:1017AE00E02445F58274013EF583E580F09000015A
:1017BE00E004F07006900000E004F0900000E0FEFF
:1017CE00A3E02445F58274013EF583E580F0900098
:1017DE0001E004F070B6900000E004F080AE9000DE
:1017EE0000E0FEA3E0900144F02405FFE43EFE90ED
:1017FE0002B9F0A3EFF07B017A01794224FEFDEEEF
:10180E0034FFFC1200269002AEEEF0A3EFF0900231
:10181E00AEE0FEA3E0FB9002B9E0FCA3E0FD2440A5
:10182E00F58274013CF583EBF0EEFF74412DF582E9
:10183E0074013CF583EFF07B017A01794212357029
:08184E009002ACE0FEA3E0FFF4
:01185600226F
:1039C300E49002A9F0A3F07B011234BE9002A9E0B7
:0439D300FEA3E0FF70
:0139D70022CD
:101A57009002A0EBF0A3EAF0A3E9F0A3ECF0A3ED6A
:011A6700F08E
:101A6800E4A3F0A3F0A3F0A3F0FFFEC3ED9404EC0D
:101A7800648094805001229002A0E0FBA3E0FAA3C6
:101A8800E04A4B7003FEFF229002A0E0FBA3E0FABD
:101A9800A3E0F9120E89FD7818666007ED08666004
:101AA80002805A9002A4E024FFFF9002A3E034FFD2
:101AB8008F82F583120EA29002A7F0A3E4F09002A1
:101AC800A4E024FEFF9002A3E034FF8F82F5831286
:101AD8000EA2FF9002A8E02FF09002A7E03400F0D9
:101AE8009002A4E024FEFD9002A3E034FFFC120063
:101AF800269002A7E06E7003A3E06F600C9002A529
:101B0800E4F0A304F0FF7E00229002A0E0FBA3E033
:101B1800FAA3E0F9120E89700B9002A3E0FCA3E08F
:101B2800FD0200039002A0E0FBA3E0FAA3E0F99015
:101B38000001120EA2120FE81B5F011B65021B7643
:101B4800031B87041B97051BAD061BC30F1BD31074
:101B58001BE31700001BF3121F1D021C0C9002A0B0
:101B6800E0FBA3E0FAA3E0F9122081021C0C90022A
:101B7800A0E0FBA3E0FAA3E0F912100E021C0C90FF
:101B880002A0E0FBA3E0FAA3E0F9121333807590FA
:101B980002A0E0FBA3E0FAA3E0F9A3E0FCA3E0FDC8
:101BA80012320E805F9002A0E0FBA3E0FAA3E0F9F6
:101BB800A3E0FCA3E0FD12234680499002A0E0FBCD
:101BC800A3E0FAA3E0F912246880399002A0E0FBB0
:101BD800A3E0FAA3E0F91221E580299002A0E0FB36
:101BE800A3E0FAA3E0F912163380199002A0E0FBF3
:101BF800A3E0FAA3E0F9120E89FF900001120EA2E9
:101C0800FD1239C39002A5EEF0A3EFF09002A5E013
:041C1800FEA3E0FF48
:011C1C0022A5
:1018570000C1814001C0804101C0804100C1814079
:1018670001C0804100C1814000C1814001C0804169
:1018770001C0804100C1814000C1814001C0804159
:1018870000C1814001C0804101C0804100C1814049
:1018970001C0804100C1814000C1814001C0804139
:1018A70000C1814001C0804101C0804100C1814029
:1018B70000C1814001C0804101C0804100C1814019
:1018C70001C0804100C1814000C1814001C0804109
:1018D70001C0804100C1814000C1814001C08041F9
:1018E70000C1814001C0804101C0804100C18140E9
:1018F70000C1814001C0804101C0804100C18140D9
:1019070001C0804100C1814000C1814001C08041C8
:1019170000C1814001C0804101C0804100C18140B8
:1019270001C0804100C1814000C1814001C08041A8
:1019370001C0804100C1814000C1814001C0804198
:1019470000C1814001C0804101C0804100C1814088
:1019570000C0C101C30302C2C60607C705C5C40448
:10196700CC0C0DCD0FCFCE0E0ACACB0BC90908C8B8
:10197700D81819D91BDBDA1A1EDEDF1FDD1D1CDCA8
:1019870014D4D515D71716D6D21213D311D1D01018
:10199700F03031F133F3F23236F6F737F53534F408
:1019A7003CFCFD3DFF3F3EFEFA3A3BFB39F9F83878
:1019B70028E8E929EB2B2AEAEE2E2FEF2DEDEC2C68
:1019C700E42425E527E7E62622E2E323E12120E0D8
:1019D700A06061A163A3A26266A6A767A56564A4C8
:1019E7006CACAD6DAF6F6EAEAA6A6BAB69A9A86838
:1019F70078B8B979BB7B7ABABE7E7FBF7DBDBC7C28
:101A0700B47475B577B7B67672B2B373B17170B097
:101A17005090915193535292965657975595945487
:101A27009C5C5D9D5F9F9E5E5A9A9B5B99595898F7
:101A3700884849894B8B8A4A4E8E8F4F8D4D4C8CE7
:101A47004484854587474686824243834181804057
:100026009002C0EBF0A3EAF0A3E9F0A3ECF0A3ED95
:01003600F0D9
:10003700E4A3F0A3F07FFF7DFF9002C374FFF5F008
:10004700120F5845F060339002C0E0FBA3E475F04F
:1000570001120F58A9F0FA120E896DFB7A00245786
:10006700F582EA3418F583E4936FFD74572BF58214
:10007700EA3419F583E493FF80BFEF9002C5F0A33C
:10008700E4F0E02DF09002C5E03400F0E0FEA3E0DC
:01009700FF69
:010098002245
:100B5300020E74E86480F8E933E83360110460F04E
:100B6300ED33EC337009E8FCE9FDEAFEEBFF220408
:100B730060DED3EB9FEA9EE99DE8C2E78CF0C2F703
:100B830095F0400CE8CCF8E9CDF9EACEFAEBCFFBCF
:100B9300120E3F85D0F05804700320D5B3E80470DB
:100BA300075002B2D5020E7E92D5EC0460F7E4CC76
:100BB300C0E0C398F8603B94186008400DD0E0FB98
:100BC300020E56E4FBFAC9FC8028E830E406E4C9C7
:100BD300FBE4CAFCE830E305E4C9CACBFCE85407EC
:100BE3006010F8C3E913F9EA13FAEB13FBEC13FCF7
:100BF300D8F130F52FC3E49CFCEF9BFFEE9AFEED9A
:100C030099FDD0E0FBEF4E4D4C701222DB03020E38
:100C13007BEC2CFCEF33FFEE33FEED33FDED30E7E1
:100C2300EB020E56EF2BFFEE3AFEED39FDD0E0FB63
:100C330050130BBB0003020E7EED13FDEE13FEEF0C
:080C430013FFEC13FC020E5636
:100C4B00EC4D6011E8497017ED33EC3304600DE4A3
:100C5B00FCFFFEFD22E933E8330470F8020E741238
:100C6B000E3F58046009E4CC248150062850090239
:100C7B000E7E284003020E7BC0E0EB4A7044B98025
:100C8B0006D0E0FB020E6AEF4E701CBD8008EBFF36
:100C9B00EAFEE9FD80EBE98DF0A4FEE5F0020D34F0
:100CAB00E9CDF9EAFEEBFFEF89F0A4FCE5F0CE8984
:100CBB00F0A42EFFE435F0CD89F0A42DFEE435F041
:100CCB008067EF4E7005BD80D780C3EF8BF0A4AC6F
:100CDB00F0EE8BF0A42CFCE435F0F8EF8AF0A42CAA
:100CEB00E5F038FCE433CB8DF0A42CFCE5F03BF8BD
:100CFB00EE8AF0A42CFCE5F038F8E433CF89F0A4AD
:100D0B002CFCE5F038CF3400CE89F0A42FFFE5F0B2
:100D1B003EFEE433C98DF0A42EFEE5F039CD8AF00A
:100D2B00A42FFFE5F03EFEE43DFD33D0E0FB500782
:100D3B000BBB000F020E7EEC2CFCEF33FFEE33FEF1
:060D4B00ED33FD020E561F
:100D510074F8CC6480CCC86480C8F58204604FC349
:100D6100EB9FF5F0EA9E42F0E99D42F0E89C45F0E8
:100D7100603C501DE5825FFFE582D313CB5BCBF472
:100D81002B5582FB50280ABA002409B9002008809B
:100D91001DE5825BFBE582D313CF5FCFF4C3132F35
:100DA1005582FF50090EBE00050DBD00010CC3EBBD
:100DB1009FF5F0EA9E42F0E99D42F0E89C45F06023
:090DC10007CC4820E701B3EC2245
:100DCA0075F020800E75F010800575F0087D007EA4
:100DDA00007F003392D530D503120F6EEC334010EA
:100DEA00EF33FFEE33FEED33FDEC33FCD5F0ED22AD
:0E0DFA00E5F0247EA2D513CC92E7CDCEFF22E9
:100E0800EDD2E7CD33EC3392D524814006E4FFFEE2
:100E1800FDFC22FCE4CFCECDCC24E0501174FF8041
:100E2800EDC3CC13CCCD13CDCE13CECF13CF0470DE
:070E3800F030D5DE020F6E61
:100E3F00E9D2E7C933E833F892D5EDD2E7CD33ECF9
:070E4F0033FC5002B2D52272
:100E5600EC30E7100FBF000C0EBE00080DBD0004FD
:100E66000BEB6014A2D5EB13FCED92E7FD2274FFA9
:100E7600FCFDFEFF22E480F8A2D574FF13FC7D8002
:030E8600E480EF16
:1032AA0002009EE493A3F8E493A34003F68001F29C
:1032BA0008DFF48029E493A3F85407240CC8C33325
:1032CA00C4540F4420C8834004F456800146F6DFF4
:1032DA00E4800B01020408102040809035A4E47EAB
:1032EA00019360BCA3FF543F30E509541FFEE493E9
:1032FA00A360010ECF54C025E060A840B8E493A3B0
:10330A00FAE493A3F8E493A3C8C582C8CAC583CADA
:10331A00F0A3C8C582C8CAC583CADFE9DEE780BE92
:0135D50000F5
:100E8900BB010689828A83E0225002E722BBFE0267
:090E9900E32289828A83E493229A
:100EA200BB010CE58229F582E5833AF583E0225005
:100EB20006E92582F8E622BBFE06E92582F8E2224F
:0D0EC200E58229F582E5833AF583E4932269
:100ECF00F8BB010DE58229F582E5833AF583E8F059
:100EDF00225006E92582C8F622BBFE05E92582C805
:020EEF00F222ED
:100EF100EF8DF0A4A8F0CF8CF0A428CE8DF0A42E15
:020F0100FE22CE
:100F0300BC000BBE0029EF8DF084FFADF022E4CCD2
:100F1300F875F008EF2FFFEE33FEEC33FCEE9DEC9B
:100F2300984005FCEE9DFE0FD5F0E9E4CEFD22EDE1
:100F3300F8F5F0EE8420D21CFEADF075F008EF2F2B
:100F4300FFED33FD4007985006D5F0F222C398FD1C
:050F53000FD5F0EA22B9
:100F5800A3F8E0C5F025F0F0E5821582700215834C
:060F6800E0C838F0E822A9
:0E0F6E00C3E49FFFE49EFEE49DFDE49CFC2294
:100F7C00EB9FF5F0EA9E42F0E99D42F0EC6480C8EC
:060F8C0064809845F0228C
:0C0F9200E6FC08E6FD08E6FE08E6FF228B
:0D0F9E00E6FB08E6F908E6FA08E6CBF822C3
:0C0FAB00ECF608EDF608EEF608EFF62272
:0C0FB700ECF0A3EDF0A3EEF0A3EFF022AD
:100FC300D083D082E493F608740193F608740293F5
:090FD300F608740393F67404732C
:0C0FDC00A42582F582E5F03583F5832220
:100FE800D083D082F8E4937012740193700DA3A398
:100FF80093F8740193F5828883E4737402936860AC
:06100800EFA3A3A380DFAB
:00000001FF
